:020000040800F2
:1000000000500020D9480008210C0008250C0008E9
:10001000290C00082D0C0008310C0008000000001D
:10002000000000000000000000000000350C000887
:10003000390C0008000000003D0C0008410C0008CD
:1000400021490008214900082149000821490008E8
:1000500021490008214900082149000821490008D8
:1000600021490008214900082149000821490008C8
:1000700021490008690C00082149000821490008AD
:1000800021490008590C00082149000821490008AD
:100090002149000821490008214900082149000898
:1000A0002149000871390008214900082149000848
:1000B0008139000821490008214900082149000828
:1000C0002149000821490008214900082149000868
:1000D0002149000821490008890C0008790C000812
:1000E00021490008214900082149000800000000BA
:1000F0000000000000000000000000000000000000
:0C01000000000000000000005FF808F1A3
:10010C00044B05481B1A062B02D9044B03B11847A4
:10011C00704700BFD7010020D40100200000000070
:10012C0005490648091A891001EBD171491002D012
:10013C00034B03B118477047D4010020D4010020B1
:10014C000000000010B5064C237843B9FFF7D8FF28
:10015C00044B13B10448AFF300800123237010BD8E
:10016C00D8010020000000008849000808B5084BA1
:10017C001BB108480849AFF300800848036813B95D
:10018C00BDE80840CCE7064B002BF9D09847F7E7C1
:10019C000000000088490008DC010020D401002088
:1001AC00000000000F4B1A6842F001021A605968F7
:1001BC000D4A0A405A601A6822F0847222F4803286
:1001CC001A601A6822F480221A605A6822F4FE021D
:1001DC005A604FF41F029A604FF00062034B9A6012
:1001EC00704700BF001002400000FFF800ED00E077
:1001FC0008B5034803494FF4A27204F0B3FB08BDE1
:10020C003C020020E8490008002209E0930003F1B9
:10021C00006303F5FE331968094B43F822100132D1
:10022C000C2AF3DD002307E0064A52F82320044988
:10023C0051F8231011600133082BF5DD704700BF16
:10024C00F40100202000002010B584B004460A46BA
:10025C001C3193685068009010680190029103481B
:10026C0021460C3203F0E0FC04B010BD2C4B00080E
:10027C0030B583B00546374801210A4603F0D4FC5B
:10028C0035483649364A03F0CFFC364803F0CCFCEF
:10029C00002414E0AC4203D1334803F0C5FC02E067
:1002AC00324803F0C1FC082C08DC2046304B53F8D4
:1002BC002410FFF7C9FF2F4803F0B6FC0134082CBB
:1002CC00E8DD03F091FC23480D21012203F0ACFC86
:1002DC00294B1B7813B1012B32D039E0274803F09E
:1002EC00A3FC274C274B009320462749274A284B31
:1002FC0003F09AFC274B009320462749274A284BAA
:10030C0003F092FC274B009320462749274A284BA1
:10031C0003F08AFC274B009320462749274A284B99
:10032C0003F082FC274B009320462749274A284B91
:10033C0003F07AFC274803F077FC03F055FC07E048
:10034C00254803F071FC254803F0B8FE03F04CFC83
:10035C0003B030BD504B00085C4B0008844B0008C8
:10036C008C4B0008944B0008C84B0008CC4B000881
:10037C00200000207853000880030020D04B000898
:10038C00144C00084C4C0008304C0008384C000849
:10039C00444C00086C4C0008584C00085C4C00089D
:1003AC00684C0008904C0008784C00087C4C000805
:1003BC008C4C0008B04C0008A04C0008A44C000861
:1003CC00A84C0008DC4C0008C04C0008C84C0008C5
:1003DC00D44C0008EC4C0008244D000858080020B0
:1003EC0008B504480449482203F002FB00B101207F
:1003FC0008BD00BFF401002000FC010808B5002373
:10040C0007E0064A52F823201168054A42F82310E7
:10041C000133082BF5DDFFF7E3FF08BD20000020BA
:10042C00F401002008B504F019FA08BD08B50A203B
:10043C0004F014FA08BD00BF2DE9F04782B06D48F6
:10044C0003F0F2FB6C480B21012203F0EDFB6B482F
:10045C0003F0EAFB6A4803F0E7FB03F0C5FB664DCB
:10046C00284601210A4603F0DFFB664CE17822792D
:10047C006379A0790090644803F0D6FBE778FFB26B
:10048C0094F804805FFA88F86679F6B294F80690CE
:10049C005FFA89F928460221012203F0C5FBDFF837
:1004AC008CA1504603F0C0FB584C204603F0BCFB1B
:1004BC00204603F0B9FB204603F0B6FB544803F08A
:1004CC00B3FB204603F0B0FB204603F0ADFB204607
:1004DC0003F0AAFB504603F0A7FB4E4CA16A626ADC
:1004EC00520028460A39173A03F09EFBDFF840A168
:1004FC00504603F099FB216BE26A520028460A39F8
:10050C00033A03F091FB504603F08EFBA7F10D0369
:10051C00062B0FD8B8F1130F0CDCB8F10C0F09DD5A
:10052C007A002846A8F10A01173A03F07DFB3A48F5
:10053C0003F07AFBA6F10D03062B25D8B9F1130FA6
:10054C0022DCB9F10C0F1FDD72002B48A9F10A0156
:10055C00033A03F069FB304803F066FB03F044FBFD
:10056C00FFF764FFFFF762FFFFF760FFFFF75EFF27
:10057C00FFF75CFFFFF75AFFFFF758FFFFF756FF37
:10058C00FFF754FFFFF752FFFFF750FF1D4B9B780F
:10059C0013F0400F15D01B4AD1781E4B59621179BC
:1005AC0099625179D96292791A631C481C494FF4AB
:1005BC00CB721C4B03F058FB4FF47A70FFF732FFF1
:1005CC0013E0104B9B7813F0200F3FF448AF134807
:1005DC00134940F29B12144B03F046FB4FF47A7014
:1005EC00FFF720FF034803F01FFB002002B0BDE81B
:1005FC00F08700BF684D0008504B0008704D000894
:10060C00804D000858080020A04D0008E04D00085F
:10061C000C4E0008F4010020484E0008584E00080B
:10062C00D84900085C4E0008684E0008B44D00081C
:10063C00384E000808B5FFF7FFFE034600B1012352
:10064C00184608BD38B5944B9B7803F00303032B75
:10065C0006D0914B9B7813F0010F03D1002302E0DD
:10066C00002300E001231D468B4B9B7803F0030312
:10067C00032B06D0884B9B7813F0020F03D1002379
:10068C0002E0002300E001231C4605B91BB3834B99
:10069C00196883480331012203F0C6FA814803F03C
:1006AC00C3FA35B17D4A1368013B23EAE373136047
:1006BC0007E034B1794A13680133082BA8BF08232B
:1006CC001360764B196876480331012203F0ACFABB
:1006DC00754803F0A9FA70494A78C2F340024B7886
:1006EC00C3F380034878C0F3C0004978C1F300110C
:1006FC001AB913B908B900294ED060B1674B1A6802
:10070C006A4B53F822205168136801338B42A8BFFF
:10071C000B46136028E061B1604B1A68634B53F8C9
:10072C002220516813680A338B42A8BF0B46136012
:10073C001AE062B1594B1A685C4B53F8222091684D
:10074C001368013B8B42B8BF0B4613600CE05BB1E6
:10075C00524B1A68554B53F82220916813680A3B88
:10076C008B42B8BF0B4613604D4D4C4C216828464C
:10077C000331032203F058FA236818464B4A52F807
:10078C002310FFF761FD216828460331022203F094
:10079C004BFA474803F048FA41481421012203F070
:1007AC0043FA3D4B9B7813F0100F0CD0FFF720FD54
:1007BC004048414940F21D12404B03F055FA374B6B
:1007CC001868FFF755FD344B5B7813F0010F23D0FD
:1007DC00FFF714FE80B9374D374C284621464FF4AD
:1007EC009272374B03F040FA2846214640F225120C
:1007FC00344B03F039FAFEE72F4C334821464FF4C3
:10080C009572324B03F030FA2A48214640F22B12F3
:10081C002C4B03F029FAFEE71F4B9B7803F00C03DB
:10082C000C2B17D01C4B9B7813F0080F12D02148BF
:10083C0021494FF49972264B03F016FA4FF47A7053
:10084C00FFF7F0FDFFF7F6FE144B1868FFF710FDED
:10085C00012038BD03F0C8F90F4B9B7813F0200F23
:10086C0017D000240D4B1C60124813494FF49F7293
:10087C00184B03F0F9F94FF47A70FFF7D3FD1648D3
:10088C0003F0D2F9064801210A4603F0CDF92046BF
:10089C0038BD012038BD00BF58080020840300205B
:1008AC00504B000804520008744E00082000002031
:1008BC00784E0008584E0008CC4900087C4E0008C1
:1008CC00904E0008A04E0008AC4E0008B04E000838
:1008DC00C04E0008684E0008684D000870B55848B6
:1008EC0003F0A2F90020FFF7C3FC002501262C46DB
:1008FC009EE0544B9B7803F00303032B04D0514B25
:10090C009B7813F0010F3AD14E4B9B7803F0030305
:10091C00032B04D04B4B9B7813F0020F31D1494B76
:10092C005B7813F0020F2ED1464B5B7813F0040F5B
:10093C002BD1444B5B7813F0080F28D1414B5B78DB
:10094C0013F0100F25D13F4B9B7813F0100F22D1D1
:10095C003C4B5B7813F0010F1FD13A4B9B7803F0A3
:10096C000C030C2B04D0374B9B7813F0080F16D1CB
:10097C00344B9B7813F0200F13D0012312E001238A
:10098C0010E001230EE001230CE001230AE0012317
:10099C0008E0012306E0012304E0012302E0012327
:1009AC0000E000239BB15CB11E2C0EDD264B83FBBB
:1009BC000432E317C3EB620303EB83039C4204D1C1
:1009CC00FFF740FE061C18BF0126013400E000248E
:1009DC00ADB91C4B9B7813F0400F10D01B4B1B7800
:1009EC001BB90122194B1A7002E00022174B1A7026
:1009FC00134803F019F90020FFF73AFC0125114BBD
:100A0C009B7813F0400F00D10025104B1B78012B65
:100A1C000CD10F480D21012203F006F90D4803F00B
:100A2C0003F9084803F04AFB03F0DEF8FFF7FEFC7D
:100A3C00002E7FF45EAF0EB1002070BD012070BDA2
:100A4C00684D000858080020676666668003002021
:100A5C00504B0008244D000808B5FFF7C9FBFFF701
:100A6C00D3FB08BD08B5FFF739FF08BD154B9B78C4
:100A7C0003F00303032B07D0124B9B7813F0010FE9
:100A8C0002D00122104B1A700E4B9B7803F003031B
:100A9C00032B07D00B4B9B7813F0020F02D00222D2
:100AAC00094B1A70074B9B7803F00C030C2B07D0E7
:100ABC00044B9B7813F0040F02D00322024B1A70E4
:100ACC000020704758080020D001002000220B4B5A
:100ADC005A700B4B9B7813F0400F02D00122074B3E
:100AEC005A70074B9B7813F0200F04D0034A5378AD
:100AFC0043F0020353700020704700BF0400002035
:100B0C005808002038B5002435E014B1012C05D06C
:100B1C0035E01C4803F0C0FA002303E0194803F049
:100B2C0097FA012338B9184D5A00D11849002944B5
:100B3C00087148801EE0002807DD5A001A44520054
:100B4C0011490A440121117106E05A001A4452005D
:100B5C000D490A44022111710028B8BF40425A00C5
:100B6C0013445B00084A134400EB8002C0EBC20044
:100B7C0082005A800134012CC7DD002038BD0120D1
:100B8C0038BD00BF580800200800002008B5FFF74A
:100B9C0063FF002008BD00BF08B51D4B5B7813F048
:100BAC00080F28D01A4B5B7813F0100F23D0184B7A
:100BBC005B7813F0020F1ED0154B5B7813F0040F0B
:100BCC0003D118E00A2003F049FE114B5B7813F0B7
:100BDC00080FF7D10E4B5B7813F0100FF2D10C4BC2
:100BEC005B7813F0020FEDD1094B5B7813F0040F17
:100BFC00E8D1FFF737FFFFF785FF30B9FFF766FF46
:100C0C0020B9FFF733FF10B908BD08BD08BD08BDFA
:100C1C0058080020704700BFFEE700BFFEE700BF8A
:100C2C00FEE700BFFEE700BF704700BF704700BF84
:100C3C00704700BF08B501F099FB01F05BFC024A5C
:100C4C0013680133136008BD6008002008B5024B1F
:100C5C00186B02F011F808BD4801002008B5024BD2
:100C6C00586B02F009F808BD8801002008B502484D
:100C7C0002F0F4FC08BD00BF8801002008B5024852
:100C8C0002F0ECFC08BD00BF4801002000B583B0A9
:100C9C001C4B9A6942F001029A619B6903F00103B3
:100CAC000193019B032001F07DFB6FF00B000021F1
:100CBC000A4601F095FB6FF00A0000210A4601F08C
:100CCC008FFB6FF0090000210A4601F089FB6FF0E1
:100CDC00040000210A4601F083FB6FF003000021A1
:100CEC000A4601F07DFB6FF0010000210A4601F07D
:100CFC0077FB4FF0FF3000210A4601F071FB03B087
:100D0C005DF804FB0010024010B588B00368384A47
:100D1C00934253D1374B9A6942F008029A619B690E
:100D2C0003F008030193019B314A1368C3F30E03CC
:100D3C0013604FF44073049311230593022307931C
:100D4C002D4C204604A901F087F8E36843F4407366
:100D5C00E360294B9B6803F44073B3F5407FF8D1F3
:100D6C00254AD36823F44073D360234B9B6813F458
:100D7C00407FFAD14FF4407304931223059303235D
:100D8C0007931D4804A901F067F81C4A536843F007
:100D9C0002035360174BDA6942F40012DA61DB6923
:100DAC0003F400130293029B114B1A6842F40042A5
:100DBC001A601A68C2F30E021A6017E0104A9342C6
:100DCC0014D14FF440630493122305930323079328
:100DDC00094804A901F040F8064BDA6942F4800294
:100DEC00DA61DB6903F480030393039B08B010BD45
:100DFC000054004000100240000C01400000014073
:100E0C0000580040F0B58DB004460368704A934218
:100E1C0029D1704B9A6942F480429A619A6902F422
:100E2C0080420192019A9A6942F004029A619B698C
:100E3C0003F004030293029B4FF400730893022304
:100E4C00099303230B93644C204608A901F004F882
:100E5C004FF480630893002309930A93204608A952
:100E6C0000F0FAFFB1E05D4A934259D1594EF36953
:100E7C0043F40033F361F36903F400330393039BEE
:100E8C00B36943F00403B361B36903F0040304933F
:100E9C00049B042308930223099303230B934E4FC3
:100EAC00384608A900F0D8FF0823089300250995B7
:100EBC000A95384608A900F0CFFF736943F0010387
:100ECC007361736903F001030593059B444E454B15
:100EDC00336010277760B5608023F36035617561EE
:100EEC00B561F561304601F0F7FD2663746211209F
:100EFC002946012201F074FA112001F0B3FA3846A8
:100F0C0029462A4601F06CFA384601F0ABFA262045
:100F1C002946012201F064FA262001F0A3FA54E0DC
:100F2C00314A934251D12B4BDA6942F48022DA6177
:100F3C00DA6902F480220692069A9A6942F010024B
:100F4C009A619B6903F010030793079B4FF480632E
:100F5C0008930223099303230B93244D284608A9D5
:100F6C0000F07AFF4FF400630893002609960A9666
:100F7C00284608A900F070FF1D4A536823F030037F
:100F8C0043F0100353601B4D1B4B2B606E60AE6027
:100F9C008023EB602E616E61AE614FF40053EB6108
:100FAC00284601F099FD65636C620D20314632468E
:100FBC0001F016FA0D2001F055FA272031460122D6
:100FCC0001F00EFA272001F04DFA0DB0F0BD00BF74
:100FDC00003801400010024000080140004400406D
:100FEC00C003002080000240004800400010014077
:100FFC00000001408803002030000240FEE700BFE3
:10100C0030B583B0044620B9BA484FF48771FFF766
:10101C00F5FF23683BB113F00F0F04D1B54840F234
:10102C000F11FFF7EBFF236813F0010F00F0A38003
:10103C00636853B1B3F5803F07D0B3F5A02F04D04C
:10104C00AC4840F21511FFF7D9FFAB4B5B6803F0CE
:10105C000C03042B0AD0A84B5B6803F00C03082B81
:10106C001BD1A54B5B6813F4803F16D04FF40033B3
:10107C0093FAA3F3A04B1A684FF4003393FAA3F33B
:10108C00B3FA83F303F01F0322FA03F313F0010FF7
:10109C0071D06368002B6ED119E36368B3F5803FA0
:1010AC0005D1954A136843F48033136026E063B985
:1010BC0003F1804303F504331A6822F480321A607A
:1010CC001A6822F480221A6018E0B3F5A02F0CD114
:1010DC0003F18043A3F53C331A6842F480221A6072
:1010EC001A6842F480321A6008E0834B1A6822F4C2
:1010FC0080321A601A6822F480221A606368EBB19D
:10110C0001F03CF9054605E001F038F9401B642874
:10111C0000F2DF824FF4003393FAA3F3764B1A6894
:10112C004FF4003393FAA3F3B3FA83F303F01F03E2
:10113C0022FA03F313F0010FE6D01CE001F01EF9C4
:10114C00054605E001F01AF9401B642800F2C38241
:10115C004FF4003393FAA3F3674B1A684FF4003340
:10116C0093FAA3F3B3FA83F303F01F0322FA03F306
:10117C0013F0010FE6D1236813F0020F00F0A080EA
:10118C002369012B04D95B4840F24911FFF736FF64
:10119C0063691F2B04D957484FF4A571FFF72EFF35
:1011AC00554B5B6813F00C0F0AD0534B5B6803F084
:1011BC000C03082B27D1504B5B6813F4803F22D1D2
:1011CC00022393FAA3F34C4B1A68022393FAA3F36A
:1011DC00B3FA83F303F01F0322FA03F313F0010FA6
:1011EC0003D02369012B40F078824348036823F035
:1011FC00F8016369F82292FAA2F2B2FA82F29340F1
:10120C000B4303605CE023699BB3012292FAA2F3C7
:10121C00B3FA83F39B0003F1844303F584031A6050
:10122C0001F0ACF8054605E001F0A8F8401B0228D7
:10123C0000F25582022393FAA3F32F4B1A68022370
:10124C0093FAA3F3B3FA83F303F01F0322FA03F325
:10125C0013F0010FE8D02848036823F0F801636904
:10126C00F82292FAA2F2B2FA82F293400B43036094
:10127C0026E0012393FAA3F3B3FA83F39B0003F163
:10128C00844303F5840300221A6001F077F80546C5
:10129C0005E001F073F8401B022800F222820223C1
:1012AC0093FAA3F3144B1A68022393FAA3F3B3FA39
:1012BC0083F303F01F0322FA03F313F0010FE8D1B9
:1012CC00236813F0080F5CD0A369012B04D90948DB
:1012DC004FF4C571FFF792FEA3696BB3012292FA2A
:1012EC00A2F3B3FA83F3054941F8232001F046F841
:1012FC0005460BE0CC4E0008001002408004424230
:10130C0001F03CF8401B022800F2ED81022393FA15
:10131C00A3F293FAA3F2A34A526A93FAA3F3B3FA91
:10132C0083F303F01F0322FA03F313F0010FE7D04A
:10133C00012001F029F824E0012393FAA3F3B3FA76
:10134C0083F30021984A42F8231001F017F8054660
:10135C0005E001F013F8401B022800F2C6810223BD
:10136C0093FAA3F293FAA3F28E4A526A93FAA3F376
:10137C00B3FA83F303F01F0322FA03F313F0010F04
:10138C00E7D1236813F0040F00F0A980E368012B68
:10139C0006D9052B04D0854840F2B711FFF72EFE75
:1013AC00804BDA6942F08052DA61DB6903F08053DA
:1013BC000193019B7E4A136843F48073136000F021
:1013CC00DDFF054605E000F0D9FF401B642800F264
:1013DC008E81774B1B6813F4807FF4D0E368012B6C
:1013EC0005D1704A136A43F00103136222E063B91A
:1013FC0003F1804303F504331A6A22F001021A62E6
:10140C001A6A22F004021A6214E0052B09D1654B0A
:10141C001A6A42F004021A621A6A42F001021A6253
:10142C0008E0604B1A6A22F001021A621A6A22F072
:10143C0004021A62E3684BB300F0A0FF054607E014
:10144C0000F09CFF401B41F28833984200F251811E
:10145C00022393FAA3F293FAA3F3B3FA83F343F0C0
:10146C0040035B09022B02D14E4B1A6A01E04D4B33
:10147C005A6A022393FAA3F3B3FA83F303F01F031C
:10148C0022FA03F313F0010FDAD028E000F076FF14
:10149C00054607E000F072FF401B41F2883398428A
:1014AC0000F22981022393FAA3F293FAA3F3B3FA7D
:1014BC0083F343F040035B09022B02D1394B1A6AC8
:1014CC0001E0384B5A6A022393FAA3F3B3FA83F37D
:1014DC0003F01F0322FA03F313F0010FDAD1E369CF
:1014EC00022B04D9314840F24721FFF787FDE3690D
:1014FC00002B00F002812B4A526802F00C02082AE1
:10150C0000F0FD80022B40F0B780236A3BB1B3F5AD
:10151C00803F04D025484FF41471FFF76FFD636AC8
:10152C0073B3B3F5802F2BD0B3F5002F28D0B3F5C0
:10153C00402F25D0B3F5801F22D0B3F5A01F1FD0AC
:10154C00B3F5C01F1CD0B3F5E01F19D0B3F5001FC5
:10155C0016D0B3F5101F13D0B3F5201F10D0B3F570
:10156C00301F0DD0B3F5401F0AD0B3F5501F07D074
:10157C00B3F5601F04D00D4840F25121FFF73EFD3A
:10158C004FF0807393FAA3F3B3FA83F39B0003F148
:10159C00844303F5840300221A6000F0EFFE054635
:1015AC000EE000BF0010024080044242CC4E000806
:1015BC000070004000F0E2FE401B022800F2A18007
:1015CC004FF0007393FAA3F3514B1A684FF000736A
:1015DC0093FAA3F3B3FA83F303F01F0322FA03F392
:1015EC0013F0010FE6D1236AB3F5803F10D1A36845
:1015FC003BB1B3F5003F04D0464840F26721FFF7FA
:10160C00FDFC43494B6823F40032A36813434B6041
:10161C003F48436823F47411236A626A13430B43F3
:10162C0043604FF0807393FAA3F3B3FA83F39B00F8
:10163C0003F1844303F5840301221A6000F09EFE3B
:10164C00044604E000F09AFE001B02285BD84FF021
:10165C00007393FAA3F32E4B1A684FF0007393FAAE
:10166C00A3F3B3FA83F303F01F0322FA03F313F08B
:10167C00010FE7D0002049E04FF0807393FAA3F3F9
:10168C00B3FA83F39B0003F1844303F58403002234
:10169C001A6000F073FE044604E000F06FFE001BBD
:1016AC00022832D84FF0007393FAA3F3184B1A6840
:1016BC004FF0007393FAA3F3B3FA83F303F01F0311
:1016CC0022FA03F313F0010FE7D100201EE00120F2
:1016DC001CE003201AE0032018E0012016E0032090
:1016EC0014E0032012E0032010E003200EE003209E
:1016FC000CE003200AE0032008E0002006E00120B3
:10170C0004E0032002E0032000E0032003B030BD1E
:10171C0000100240CC4E000830B486B01E4D02AC16
:10172C0028686968AA68EB680FC42B8AADF8043086
:10173C001A4B5A6802F00C03082B28D102F47013D0
:10174C004FF4701191FAA1F1B1FA81F1CB4006A9D5
:10175C000B4413F8103C12F4803F14D00F4A52681B
:10176C0002F400324FF4003191FAA1F1B1FA81F197
:10177C00CA4006A90A4412F8140C094AB2FBF0F04C
:10178C0003FB00F004E0074800FB03F000E0044812
:10179C0006B030BC704700BFA049000800100240E2
:1017AC0000127A0000093D0070B50D46044620B9C0
:1017BC00A1484FF42F71FFF721FC236813F00F0F92
:1017CC0004D19D4840F2BD21FFF718FC022D04D92D
:1017DC00994840F2BE21FFF711FC984B1B6803F0AF
:1017EC000703AB420BD2954A136823F007032B4334
:1017FC001360136803F00703AB4240F00C812368BD
:10180C0013F0020F1DD0A368A3B1802B12D0902B24
:10181C0010D0A02B0ED0B02B0CD0C02B0AD0D02BBC
:10182C0008D0E02B06D0F02B04D0834840F2D7210F
:10183C00FFF7E4FB82494B6823F0F002A3681343E3
:10184C004B60236813F0010F00F081806368022B5A
:10185C0004D9794840F2DE21FFF7D0FB6268012AF7
:10186C0013D14FF4003393FAA3F3754B19684FF46B
:10187C00003393FAA3F3B3FA83F303F01F0321FAB3
:10188C0003F313F0010F28D1C7E0022A13D14FF054
:10189C00007393FAA3F36A4B19684FF0007393FA31
:1018AC00A3F3B3FA83F303F01F0321FA03F313F04A
:1018BC00010F12D1B3E0022393FAA3F3604B196822
:1018CC00022393FAA3F3B3FA83F303F01F0321FA71
:1018DC0003F313F0010F00F0A48059494B6823F077
:1018EC00030313434B6000F049FD06466368012B6C
:1018FC000FD107E000F042FD801B41F28833984283
:10190C0000F291804E4B5B6803F00C03042BF1D179
:10191C001DE0022B16D107E000F030FD801B41F2D8
:10192C008833984200F28180454B5B6803F00C03CE
:10193C00082BF1D10BE000F021FD801B41F2883324
:10194C00984274D83E4B5B6813F00C0FF3D13B4BB1
:10195C001B6803F00703AB420AD9384A136823F01B
:10196C0007032B431360136803F00703AB4260D1EA
:10197C00236813F0040F19D0E36883B1B3F5806FBB
:10198C000DD0B3F5A06F0AD0B3F5C06F07D0B3F587
:10199C00E06F04D0284840F23231FFF72FFB284982
:1019AC004B6823F4E062E36813434B60236813F045
:1019BC00080F1AD0236983B1B3F5806F0DD0B3F53E
:1019CC00A06F0AD0B3F5C06F07D0B3F5E06F04D0A9
:1019DC00194840F23931FFF711FB194A536823F4C7
:1019EC006053216943EAC1035360FFF795FE144B22
:1019FC005B6803F0F003F02292FAA2F2B2FA82F2E0
:101A0C00D340104AD35CD8400F4B1860002000F034
:101A1C0087FC002070BD012070BD012070BD01202D
:101A2C0070BD012070BD032070BD032070BD03206C
:101A3C0070BD012070BD00BFCC4E000800200240DC
:101A4C0000100240B449000800000020014B186847
:101A5C00704700BF0000002008B5FFF7F7FF074BE9
:101A6C005B6803F4E0634FF4E06292FAA2F2B2FA1C
:101A7C0082F2D340024AD35CD84008BD0010024029
:101A8C00C449000808B5FFF7E1FF074B5B6803F496
:101A9C0060534FF4605292FAA2F2B2FA82F2D3403F
:101AAC00024AD35CD84008BD00100240C44900086B
:101ABC00704700BF704700BF704700BF704700BF42
:101ACC00704700BF10B5044603681A6912F0020F84
:101ADC0017D0DA6812F0020F13D06FF002021A61FD
:101AEC000123037603689B6913F0030F02D0FFF701
:101AFC00E3FF04E0FFF7DEFF2046FFF7DFFF0023E4
:101B0C00237623681A6912F0040F19D0DA6812F0E0
:101B1C00040F15D06FF004021A6102232376236898
:101B2C009B6913F4407F03D02046FFF7C5FF05E007
:101B3C002046FFF7BFFF2046FFF7C0FF00232376A8
:101B4C0023681A6912F0080F19D0DA6812F0080F1E
:101B5C0015D06FF008021A61042323762368DB6921
:101B6C0013F0030F03D02046FFF7A6FF05E0204635
:101B7C00FFF7A0FF2046FFF7A1FF00232376236881
:101B8C001A6912F0100F19D0DA6812F0100F15D074
:101B9C006FF010021A61082323762368DB6913F4B3
:101BAC00407F03D02046FFF787FF05E02046FFF774
:101BBC0081FF2046FFF782FF0023237623681A69F2
:101BCC0012F0010F09D0DA6812F0010F05D06FF096
:101BDC0001021A612046FFF76BFF23681A6912F0A5
:101BEC00800F09D0DA6812F0800F05D06FF08002F8
:101BFC001A61204600F05CFF23681A6912F0400F4E
:101C0C0009D0DA6812F0400F05D06FF040021A616B
:101C1C002046FFF755FF23681A6912F0200F09D0F0
:101C2C00DA6812F0200F05D06FF020021A612046FE
:101C3C0000F03CFF10BD00BF0022044BDA61044AE7
:101C4C00136943F00103136101807047F80300200E
:101C5C0000200240134BDB6813F0100F04D0124A23
:101C6C00D36943F00203D3610E4BDB6813F0040F0E
:101C7C0004D00D4AD36943F00103D361094BDB69EE
:101C8C0013F0010F09D0084AD36943F00403D36160
:101C9C00044AD36923F00103D3611422014BDA60A7
:101CAC00704700BF00200240F8030020074B1B695F
:101CBC0013F0800F07D0054B054A5A6002F18832A9
:101CCC005A60002070470120704700BF002002407E
:101CDC0023016745034A136943F080031361002015
:101CEC00704700BF0020024038B5044600F046FBA8
:101CFC00054608E0B4F1FF3F05D024B300F03EFBED
:101D0C00401BA04221D8134BDB6813F0010FF1D11B
:101D1C00104BDB6813F0200F02D020220D4BDA6041
:101D2C000C4BDB6813F0100F09D10A4BDB6913F075
:101D3C00010F04D1074BDB6813F0040F07D0FFF73A
:101D4C0089FF012038BD032038BD032038BD002099
:101D5C0038BD00BF002002402DE9F843364D2D7EE2
:101D6C00012D66D01E4690460F4604460122324B8A
:101D7C001A76431E022B03D93048C421FFF73EF9D3
:101D8C00B7F1006F16D32E4B1B88802B03D12D4B34
:101D9C009F420FD812E0402B03D12B4B9F4209D806
:101DAC000CE0202B03D1294B9F4203D806E0284B93
:101DBC009F4203D92148C521FFF720F94CF250303E
:101DCC00FFF792FF034670BB012C04D0022C05D107
:101DDC004FF0020904E04FF0010901E04FF0040953
:101DEC0000241EE02101C1F12002A1F1200328FAF8
:101DFC0001F106FA02F2114326FA03F3194307EB39
:101E0C00440089B2FFF718FF4CF25030FFF76CFF1B
:101E1C00104B1D6925F001051D61034618B90134ED
:101E2C00E4B24C45DED30021034A11761846BDE8D6
:101E3C00F8830220BDE8F883F8030020044F000863
:101E4C00E0F7FF1FFFFF0108FFFF0008FF7F0008FE
:101E5C00FF3F0008002002402DE9F04383B080468C
:101E6C000F46B34B984213D003F5806398420FD0C2
:101E7C0003F5806398420BD003F58063984207D03A
:101E8C0003F58063984203D0AA48CF21FFF7B6F838
:101E9C003B881BB9A748D021FFF7B0F87B68012B12
:101EAC0022D9112B20D0022B1ED0122B1CD0A24ACF
:101EBC00934219D002F58012934215D002F580128C
:101ECC00934211D0A2F5F81293420DD002F5801274
:101EDC00934209D002F58012934205D0032B03D014
:101EEC009448D121FFF78AF84FF000094E4619E1CA
:101EFC000125B5403C682C40AC4240F012818C4B23
:101F0C00984513D003F5806398450FD003F5806393
:101F1C0098450BD003F58063984507D003F5806393
:101F2C00984503D08348DF21FFF768F87B68122BB4
:101F3C0049D00CD8022B3AD004D8002B4FD0012B0F
:101F4C001ED067E0032B60D0112B24D062E07B4ABB
:101F5C00934244D008D8A2F5801293423FD002F5A8
:101F6C008032934256D13AE0754A934237D002F50B
:101F7C008032934233D0A2F5801293424AD12EE0A4
:101F8C00FB68013B022B03D96A48E721FFF736F8BF
:101F9C00D7F80C903EE0FB68013B022B03D9654857
:101FAC00EE21FFF72BF8FB6803F1040932E0FB6824
:101FBC00013B022B03D95F48F521FFF71FF8FB68A3
:101FCC0003F1080926E0FB68013B022B03D95948B1
:101FDC00FC21FFF713F8FB6803F10C091AE0BB684E
:101FEC00022B04D9534840F20911FFF707F8BB68DC
:101FFC0073B1012B04D1C8F810504FF0080909E057
:10200C00C8F814504FF0080904E04FF0000901E043
:10201C004FF00409FF2C01D8454601E008F10405F6
:10202C00FF2C01D8B00002E0A6F10800800029685E
:10203C000F23834021EA030209FA00F313432B60B8
:10204C007B6813F0805F6CD03E4B9A6942F00102C2
:10205C009A619B6903F001030193019BB008821CF8
:10206C00394B53F8221006F00305AD000F23AB409B
:10207C0021EA03022E4B984513D003F58063984553
:10208C000DD003F58063984507D003F58063984520
:10209C0001D1032306E0042304E0022302E0012320
:1020AC0000E00023AB4013430230274A42F82030B3
:1020BC007B6813F4803F05D002F5806213682343DC
:1020CC00136004E0214A136823EA040313607B685D
:1020DC0013F4003F04D01D4A53682343536004E0BB
:1020EC001A4A536823EA040353607B6813F4801F75
:1020FC0004D0164A93682343936004E0134A936810
:10210C0023EA040393607B6813F4001F04D00F4A86
:10211C00D3681C43D46004E00C4AD36823EA04045B
:10212C00D46001360F2E7FF6E3AE03B0BDE8F0832A
:10213C00000801403C4F0008000011100000211065
:10214C00000031100010024000000140000401406A
:10215C0070B5064615460C4621B909484FF4F27184
:10216C00FEF74CFF012D04D9054840F2E511FEF7AE
:10217C0045FF0DB1346170BD2404346170BD00BFE6
:10218C003C4F0008F0B583B00446036813F0130FFE
:10219C0003D15F487E21FEF731FF236813F0010F56
:1021AC007ED0636863B1B3F5807F09D0B3F5007F4F
:1021BC0006D0B3F5407F03D055488421FEF71EFFAF
:1021CC00544BDA6942F08052DA61DB6903F08053D8
:1021DC000193019B504A136843F48073136000F021
:1021EC00CDF8054605E000F0C9F8401B642800F264
:1021FC008880494B1B6813F4807FF4D0454B1B6AD5
:10220C0013F4407345D0626802F440729A4240D095
:10221C004048016A21F440764FF4803393FAA3F2DC
:10222C00B2FA82F23D4D012745F8227093FAA3F3DE
:10223C00B3FA83F3002245F82320066211F0010F54
:10224C0027D000F09BF8054606E000F097F8401BFD
:10225C0041F28833984256D8022393FAA3F293FAA8
:10226C00A3F3B3FA83F343F040035B09022B02D1CF
:10227C00284B1A6A01E0274B5A6A022393FAA3F3FC
:10228C00B3FA83F303F01F0322FA03F313F0010FE5
:10229C00DBD020490B6A23F44072636813430B6252
:1022AC00236813F0020F15D0A36863B1B3F5804F08
:1022BC0009D0B3F5004F06D0B3F5404F03D0144806
:1022CC00BA21FEF79BFE13494B6823F44042A368E6
:1022DC0013434B60236813F0100F16D0E368B3F56B
:1022EC00800F05D023B10A484FF48B71FEF786FEA0
:1022FC0008494B6823F48002E36813434B600020C9
:10230C0004E0032002E0032000E0002003B0F0BD55
:10231C00744F00080010024000700040000442425C
:10232C0010B50446FFF792FB064BA3FB0030800967
:10233C0000F0ACF84FF0FF302146002200F050F8CE
:10234C00002010BDD34D621008B5074A136843F046
:10235C0010031360032000F025F80020FFF7E0FFC6
:10236C00FEF794FC002008BD00200240024A1368CE
:10237C0001331360704700BF18040020014B18682C
:10238C00704700BF1804002010B582B00190FFF711
:10239C00F5FF0446FFF7F2FF001B019B9842F9D3AF
:1023AC0002B010BD10B50446C31E042B03D90A4855
:1023BC00BA21FEF723FE04F00700084AD36823F481
:1023CC00E0631B041B0C43EA002040F0BF6040F4A8
:1023DC000030D06010BD00BFAC4F000800ED00E035
:1023EC0070B504460E4615460F2A03D91A48D22159
:1023FC00FEF704FE0F2E03D91748D321FEF7FEFD7E
:10240C00164BDB68C3F30223C3F10702042A28BF6F
:10241C000422191D062901D9D81E00E00020012331
:10242C0003FA02F2013A324002FA00F183405A1EDA
:10243C002A400A43002C06DA04F00F041201D2B22F
:10244C00074B1A5570BD1201D2B204F1604404F569
:10245C00614484F8002370BDAC4F000800ED00E02F
:10246C0014ED00E010B5041E03DA0648E621FEF771
:10247C00C5FD610904F01F040123A340024A42F880
:10248C00213010BDAC4F000800E100E00138B0F184
:10249C00807F0AD2064B5860F021064A82F823103E
:1024AC000020986007221A6070470120704700BF17
:1024BC0010E000E000ED00E010B50446042805D063
:1024CC0020B109484FF4DF71FEF798FD042C05D1BB
:1024DC00064A136843F00403136010BD034A1368E3
:1024EC0023F00403136010BDAC4F000810E000E0B3
:1024FC00704700BF08B5FFF7FBFF08BD4368114AE2
:10250C00934208D85800B1FBF0F0C0F30B03032B37
:10251C0016D804207047826832B903EB4300B1FB34
:10252C00F0F040F4004007E003EB830000EB800088
:10253C00B1FBF0F040F44040C0F30B0303B90120B1
:10254C00704700BFA086010003685A6912F4806FBF
:10255C000DD05A6922F480625A61042383632023CC
:10256C0080F83530002380F834300120704700208B
:10257C00704700BF2DE9F04106460C4690461D46BB
:10258C00FFF7FCFE0746B8F1000F12D03DE0B5F1A5
:10259C00FF3F0ED025B1FFF7F1FEC01BA84208D9B2
:1025AC00202386F83530002386F834300320BDE82C
:1025BC00F081C4F30743012B08D133685B6924EA2B
:1025CC0003039BB2003318BF012307E033689B69F8
:1025DC0024EA03039BB2003318BF0123002BD6D18E
:1025EC000020BDE8F081B5F1FF3F0ED025B1FFF71B
:1025FC00C5FEC01BA84208D9202386F8353000231D
:10260C0086F834300320BDE8F081C4F30743012B76
:10261C0008D133685B6924EA03039BB2B3FA83F3F2
:10262C005B0907E033689B6924EA03039BB2B3FAA6
:10263C0083F35B09002BD6D10020BDE8F08100BFED
:10264C00F8B504460D461646FFF798FE074628E0F7
:10265C0023685A6912F4806F12D01A6842F400721F
:10266C001A602268536923F4806353610423A363C3
:10267C00202384F83530002384F834300120F8BD51
:10268C00B6F1FF3F0DD026B1FFF778FEC01BB0426C
:10269C0007D9202384F83530002384F83430032004
:1026AC00F8BDC5F30743012B08D123685B6925EA04
:1026BC0003039BB2003318BF012307E023689B6917
:1026CC0025EA03039BB2003318BF0123002BBFD1B3
:1026DC000020F8BD70B504460E4615460268136816
:1026EC0043F4807313604FF0011100222B46FFF767
:1026FC0041FF48BB2369B3F5804F04D1236806F032
:10270C00FE061E6114E0226806F44073DB1143F0F0
:10271C00F0031361204610492A46FFF791FF20B1C0
:10272C00A36B042B12D1012313E02368F6B21E61B4
:10273C0020460A492A46FFF783FF034648B1A36B9C
:10274C00042B05D1012304E0032302E0032300E062
:10275C000323184670BD00BF0800010002000100F1
:10276C0070B504460D46FFF709FE064618E02046F4
:10277C00FFF7EAFED8B9B5F1FF3F11D025B1FFF74D
:10278C00FDFD801BA8420BD9A36B43F02003A36370
:10279C00202384F83530002384F83430032070BDB6
:1027AC0023685B6913F0800FE1D0002070BD01201D
:1027BC0070BD00BF70B504460D46FFF7DFFD064641
:1027CC0018E02046FFF7C0FED8B9B5F1FF3F11D095
:1027DC0025B1FFF7D3FD801BA8420BD9A36B43F0A7
:1027EC002003A363202384F83530002384F834308D
:1027FC00032070BD23685B6913F0040FE1D0002047
:10280C0070BD012070BD00BF002800F0AB8038B552
:10281C0004460368544A934208D002F580629342FE
:10282C0004D052484FF4A571FEF7E8FB6368013BF6
:10283C004F4A934204D94D4840F24B11FEF7DEFB50
:10284C00A3683BB1B3F5804F04D048484FF4A67150
:10285C00FEF7D4FBE36823F47F7323F0030323B167
:10286C00424840F24D11FEF7C9FB2369B3F5804F86
:10287C0007D0B3F5404F04D03C484FF4A771FEF796
:10288C00BDFB6369012B04D9384840F24F11FEF7A8
:10289C00B5FBA36933F0FE0304D034484FF4A871A0
:1028AC00FEF7ACFBE36933B1402B04D02F4840F268
:1028BC005111FEF7A3FB236A33B1802B04D02B48B4
:1028CC004FF4A971FEF79AFB94F8353013F0FF0F13
:1028DC0005D1002384F834302046FEF715FA242362
:1028EC0084F835302268136823F001031360FFF776
:1028FC00B3F801461F4BA3FB00239B0C22685360CB
:10290C00206865681C4A954201D8013308E04FF4F1
:10291C00967202FB03F3194AA2FB03239B090133B2
:10292C00036225682046FFF7E9FDE8612268E1694A
:10293C00236A0B43136022682169E3680B4393609D
:10294C0022686169A3690B43D3602268136843F062
:10295C00010313600020A063202384F8353084F831
:10296C00360038BD0120704700540040E44F000889
:10297C007F1A060083DE1B43A0860100D34D621034
:10298C00F0B583B004461D4690F83530DBB2202BF1
:10299C007AD10F461646002A78D0002D78D04249BD
:1029AC00012242F21073FFF7E5FD002872D194F872
:1029BC003430012B70D0012384F834302268136832
:1029CC0023F400631360212384F83530102384F83A
:1029DC0036300023A36320463946089AFFF77AFE67
:1029EC0060B1A36B042B04D1002384F83430012391
:1029FC0057E0002384F83430032352E023685A69EB
:102A0C0001929B690193019B20E020460899FFF7F6
:102A1C00A7FE48B1A36B042B40D12268136843F482
:102A2C000073136001233CE02268731C3178116140
:102A3C00013DADB22268516911F0040F05D025B1EA
:102A4C00B31C71781161013DADB21E46002DDCD175
:102A5C0020460899FFF7AEFE034648B1A36B042B42
:102A6C001ED12268136843F400731360012318E02D
:102A7C0021680A6842F400720A60202284F835202A
:102A8C00002284F834200CE002230AE0012308E041
:102A9C00012306E0022304E0022302E0032300E00A
:102AAC000323184603B0F0BD02001000704700BFAE
:102ABC00704700BF10B4046863604368102B04D1E6
:102ACC0003689A600368D96003E00368996003683F
:102ADC00DA605DF8044B7047002800F0898010B56F
:102AEC0004460368434A934215D01432934212D0E1
:102AFC00143293420FD0143293420CD014329342BE
:102B0C0009D01432934206D01432934203D03A487F
:102B1C00B521FEF773FA636843B1102B06D0B3F5F9
:102B2C00804F03D03448B621FEF768FAA368402BD7
:102B3C0004D01BB13048B721FEF760FAE368802B54
:102B4C0004D01BB12C48B821FEF758FA23694BB1BD
:102B5C00B3F5807F06D0B3F5007F03D02648B921AA
:102B6C00FEF74CFA63694BB1B3F5806F06D0B3F541
:102B7C00006F03D02048BA21FEF740FAA3692BB1AD
:102B8C00202B03D01C48BB21FEF738FAE36963B154
:102B9C00B3F5805F09D0B3F5005F06D0B3F5405FA5
:102BAC0003D01548BC21FEF729FA94F821300BB953
:102BBC0084F82030022384F821302068036823F441
:102BCC007F5323F030036168A2681143E26811431C
:102BDC002269114362691143A2691143E2690A43F4
:102BEC001343036000206063012384F8213010BD7F
:102BFC0001207047080002401C500008F8B590F8FE
:102C0C002040012C34D01D4616460F4604460123A5
:102C1C0080F82030022380F821306A1E4FF6FE73B4
:102C2C009A4204D9134840F26111FEF7E7F9226881
:102C3C00136823F0010313602046394632462B46B5
:102C4C00FFF738FF2268136843F002031360226811
:102C5C00136843F0040313602268136843F00803FD
:102C6C0013602268136843F0010313600020F8BD61
:102C7C000220F8BD1C50000810B50446984B1A6889
:102C8C00036898498B421FD014318B421AD01431EF
:102C9C008B4214D014318B420ED014318B4208D09D
:102CAC0014318B4202D14FF400010EE04FF0006161
:102CBC000BE04FF4002108E04FF4004105E04FF425
:102CCC00006102E0802100E008210A423CD01A6831
:102CDC0012F0080F38D01A6822F008021A60236824
:102CEC00804A93421FD0143293421AD0143293422A
:102CFC0014D0143293420ED01432934208D01432B2
:102D0C00934202D14FF400020EE04FF000620BE050
:102D1C004FF4002208E04FF4004205E04FF400624B
:102D2C0002E0802200E008226D4B5A60636B43F096
:102D3C0001036363042384F82130002384F82030DA
:102D4C00236B0BB120469847654B1A68236865497D
:102D5C008B421FD014318B421AD014318B4214D0B9
:102D6C0014318B420ED014318B4208D014318B426B
:102D7C0002D14FF480010EE04FF080610BE04FF474
:102D8C00802108E04FF4804105E04FF4806102E0BF
:102D9C00402100E004210A4239D01A6812F0040FD5
:102DAC0035D01A6812F0200F03D11A6822F00402F1
:102DBC001A6023684B4A93421FD0143293421AD0A4
:102DCC001432934214D0143293420ED014329342E4
:102DDC0008D01432934202D14FF480020EE04FF02F
:102DEC0080620BE04FF4802208E04FF4804205E053
:102DFC004FF4806202E0402200E00422384B5A601B
:102E0C00112384F82130E36A0BB120469847344BE8
:102E1C001A68236833498B421FD014318B421AD065
:102E2C0014318B4214D014318B420ED014318B429E
:102E3C0008D014318B4202D14FF400110EE04FF048
:102E4C0000710BE04FF4003108E04FF4005105E045
:102E5C004FF4007102E0202100E002210A423ED032
:102E6C001A6812F0020F3AD01A6812F0200F03D130
:102E7C001A6822F002021A6023681A4A93421FD081
:102E8C00143293421AD01432934214D01432934217
:102E9C000ED01432934208D01432934202D14FF424
:102EAC0000120EE04FF000720BE04FF4003208E01D
:102EBC004FF4005205E04FF4007202E0202200E0D3
:102ECC000222074B5A60636B6363012384F8213041
:102EDC00002384F82030A36A0BB12046984710BD1C
:102EEC000000024008000240704700BF002844D098
:102EFC0010B504460268234B9A4203D02248A621FF
:102F0C00FEF77CF86368062B03D91F48A721FEF750
:102F1C0075F8A368B3F5805F03D31B48A821FEF7AF
:102F2C006DF82368DA6812F0010F03D0DB6813F038
:102F3C00020F24D1637B13F0FF0F04D10023237302
:102F4C002046FFF7D1FF02236373236845F25552E5
:102F5C001A6021684B6823F00702636813434B60C7
:102F6C0021688B6823F47F6323F00F03A26813435B
:102F7C008B6001236373002010BD0120704701207A
:102F8C0010BD00BF0030004054500008037B012BE3
:102F9C000FD00223437303684CF6CC421A600368CB
:102FAC004AF6AA221A6001234373002303731846BE
:102FBC0070470220704700BF38B5037B012B20D02F
:102FCC0004460123037302234373FFF7D7F9054625
:102FDC000AE0FFF7D3F9401BB0F57A7F04D9032040
:102FEC0060730023237338BD2368DA6812F0020F74
:102FFC00EFD14AF6AA221A600123637300202073D2
:10300C0038BD022038BD00BF90F83930DBB2122B2E
:10301C0001D0322B2AD18368B3F5805F0FD1036ABC
:10302C0002681B88C3F30803536003691BB9036A66
:10303C000233036209E0036A0133036205E00268AC
:10304C00036A591C01621B785360C38C013B9BB211
:10305C00C3846BB90268D36823F08003D360026821
:10306C00D36843F04003D3600020704702207047C0
:10307C00002070472DE9F84381464268834B9A4201
:10308C0004D9834840F25271FDF7B8FFD9F80C30DF
:10309C003BB1B3F5005F04D07D4840F25371FDF7AE
:1030AC00ADFFD9F8103053B1B3F5806F07D0B3F53D
:1030BC00C06F04D0764840F25471FDF79FFFD9F8E9
:1030CC00143033F00C0200D123B9714840F2557121
:1030DC00FDF794FFD9F800100B6923F44052D9F88E
:1030EC000C3013430B61D9F80820D9F810301A436F
:1030FC00D9F814301343D9F80010CA6822F4B0522E
:10310C0022F00C021343CB60D9F800104B6923F466
:10311C004072D9F8183013434B61D9F800505D4B0D
:10312C009D4259D1FEF7AEFC00EB800000EB800015
:10313C00D9F80440A400B0FBF4F4574EA6FB0434B9
:10314C0064092401FEF79EFC00EB800000EB80007C
:10315C00D9F804309B00B0FBF3F7FEF793FC00EBBF
:10316C00800000EB8000D9F804309B00B0FBF3F337
:10317C00A6FB03235B094FF0640808FB13731B01C8
:10318C003233A6FB03235B0903F0F0031C44FEF768
:10319C0079FC00EB800000EB8000D9F804309B0038
:1031AC00B0FBF3F7FEF76EFC00EB800000EB800049
:1031BC00D9F804309B00B0FBF3F3A6FB03235B09A7
:1031CC0008FB13731B013233A6FB0323C3F3431316
:1031DC001C44AC60BDE8F883FEF73EFC00EB8000BD
:1031EC0000EB8000D9F80440A400B0FBF4F42A4EA4
:1031FC00A6FB043464092401FEF72EFC00EB8000CE
:10320C0000EB8000D9F804309B00B0FBF3F7FEF71D
:10321C0023FC00EB800000EB8000D9F804309B000D
:10322C00B0FBF3F3A6FB03235B094FF0640808FB28
:10323C0013731B013233A6FB03235B0903F0F0036A
:10324C001C44FEF709FC00EB800000EB8000D9F871
:10325C0004309B00B0FBF3F7FEF7FEFB00EB8000A5
:10326C0000EB8000D9F804309B00B0FBF3F3A6FB15
:10327C0003235B0908FB13731B013233A6FB0323E7
:10328C00C3F343131C44AC60BDE8F88320AA44008C
:10329C008C500008003801401F85EB51002872D07B
:1032AC0010B5044683690BB30368384A93420CD0BB
:1032BC00A2F57442934208D002F58062934204D086
:1032CC00334840F20711FDF799FEA369FBB1B3F542
:1032DC00807F1CD0B3F5007F19D0B3F5407F16D09A
:1032EC002B484FF48471FDF789FE10E00368274AE0
:1032FC0093420CD0A2F57442934208D002F580623E
:10330C00934204D022484FF48671FDF777FEA368F0
:10331C003BB1B3F5805F04D01D484FF48771FDF7C6
:10332C006DFEE36923B11A4840F20F11FDF766FEFA
:10333C0094F8393013F0FF0F05D1002384F838309E
:10334C002046FDF75FFD022384F839302268D368EC
:10335C0023F40053D3602046FFF78CFE22681369D8
:10336C0023F4904313612268536923F02A035361B9
:10337C002268D36843F40053D3600020E063012338
:10338C0084F8393010BD0120704700BF003801406F
:10339C008C50000810B50446134690F83920D2B270
:1033AC00012A01D0222A36D1002936D0002B36D062
:1033BC0094F83820012A34D0012284F83820216274
:1033CC00A384E3840022E26394F83920D2B2222A47
:1033DC0003D1322284F8392002E0122284F83920F9
:1033EC00226B11489062226B1048D062226B1048FD
:1033FC0010632268206B0432FFF700FC23686FF027
:10340C0040021A602268536943F080035361002024
:10341C0084F8380010BD022010BD012010BD012021
:10342C0010BD022010BD00BFD9340008393500088A
:10343C004936000838B504460D46134690F8392035
:10344C00D2B2012A01D0122A32D1002D32D0002B57
:10345C0032D094F83820012A30D0012284F8382058
:10346C00A562A3850022E26394F83920D2B2122A15
:10347C0003D1322284F8392002E0222284F8392048
:10348C00626B0F499162626B0E49D162626B0E499D
:10349C0011632168606B04312A46FFF7AFFB226889
:1034AC00536943F040035361002084F8380038BD61
:1034BC00022038BD012038BD012038BD022038BDA6
:1034CC0045350008393600084936000808B5436A06
:1034DC000268126812F0200F0CD10022DA841968ED
:1034EC004A6922F080024A611A68D36843F04003AB
:1034FC00D36008BD184601F0E5F908BD08B50268AF
:10350C00D36823F04003D36090F83930DBB2322B10
:10351C0003D1222380F8393002E0012380F83930BE
:10352C0001F0D0F9002008BD704700BF08B5406A13
:10353C00FFF7FAFF08BD00BF08B5436A02681268BE
:10354C0012F0200F12D10022DA8519684A6922F094
:10355C0040024A6193F83920D2B2322A03D11222A6
:10356C0083F8392002E0012283F83920184601F053
:10357C008BF908BD08B590F83930DBB2222B01D09D
:10358C00322B4CD18368B3F5805F13D1836A026907
:10359C0042B902685268C2F308021A80836A023385
:1035AC00836218E002685268D2B21A80836A0133CF
:1035BC00836210E0036933B9836A5A1C8262026821
:1035CC0052681A7007E0826A531C836203685B6856
:1035DC0003F07F031370C38D013B9BB2C38503BB08
:1035EC000268D36823F02003D36090F83930DBB243
:1035FC00322B03D1122380F839300CE00268D368E7
:10360C0023F48073D3600268536923F00103536180
:10361C00012380F8393001F037F9002008BD022071
:10362C0008BD002008BD00BF704700BF08B5406A48
:10363C00FFF7FAFF08BD00BF704700BF08B5406A2E
:10364C000023C385C384012380F83930C36B43F056
:10365C001003C363FFF7F0FF08BD00BF10B582B0C5
:10366C00044603681968DA6802F4807211F0010FDD
:10367C0004D01AB1C26B42F00102C26319685A69D4
:10368C0002F0010211F0020F04D01AB1E16B41F00B
:10369C000401E163196811F0040F04D01AB1E16B55
:1036AC0041F00201E163196811F0080F04D01AB15E
:1036BC00E26B42F00802E2631A68DB6803F0200355
:1036CC0012F0200F03D013B12046FFF753FF2368ED
:1036DC001A68DB6803F0800312F0800F03D013B17B
:1036EC002046FFF791FC23681A68DB6803F040035F
:1036FC0012F0400F03D013B12046FFF7FFFEE36B2F
:10370C005BB123681A6801925B680193019B0123EA
:10371C0084F839302046FFF78FFF02B010BD00BF90
:10372C0008B5012804D0094840F26721FDF766FC72
:10373C000022074BDA61074B1A6942F004021A6146
:10374C001A6942F040021A6108BD00BFC45000085B
:10375C00F8030020002002400022064BDA61064BE1
:10376C001A6942F002021A6158611A6942F0400269
:10377C001A617047F803002000200240574B1B7E53
:10378C00012B00F0A98070B50E4605460122534B63
:10379C001A7603682BB1022B03D05148B921FDF7DF
:1037AC002DFC2B68022B14D14CF25030FEF79CFAF6
:1037BC00002840F089800120FFF7B2FF4CF2503016
:1037CC00FEF792FA024647490B6923F004030B619A
:1037DC007DE0AB68B3F1006F16D3434A1288802AA0
:1037EC0003D1424A93420FD812E0402A03D1404AF7
:1037FC00934209D80CE0202A03D13E4A934203D8C5
:10380C0006E03D4A934203D93548FA21FDF7F6FB11
:10381C00354B1B88802B0AD1AB68EA6803EB8223FB
:10382C00013B324A93428CBF0023012323E0402BFF
:10383C000AD1AB68EA6803EB8223013B2C4A934222
:10384C008CBF0023012316E0202B0AD1AB68EA6859
:10385C0003EB8223013B274A93428CBF00230123B5
:10386C0009E0AB68EA6803EB8223013B224A9342EE
:10387C008CBF002301231BB91948FB21FDF7BEFBAC
:10388C004CF25030FEF730FA00BB4FF0FF33336090
:10389C00AC68012211E02046FFF75EFF4CF250307D
:1038AC00FEF722FA0F4A136923F002031361024652
:1038BC0008B134600BE004F58064E968AB6803EB95
:1038CC008123A342E7D802E0012200E0012200217B
:1038DC00024B1976104670BD02207047F803002089
:1038EC00C450000800200240E0F7FF1FFFFF010852
:1038FC00FFFF0008FF7F0008FF3F000838B50446B3
:10390C000D46012803D904482B21FDF777FB034B07
:10391C0053F824305D6038BD085100080051000890
:10392C0008B5054B53F82000FEF76EFF08B10120D7
:10393C0008BD002008BD00BF0051000810B582B0C2
:10394C000C46134641000A22009205482246FFF716
:10395C0017F810B14FF0FF3000E0002002B010BD9E
:10396C004400002008B50248FEF7ACF808BD00BFC3
:10397C00BC00002008B50248FEF7A4F808BD00BF43
:10398C00BC00002008B5FEF791F908B1022008BD73
:10399C00002008BD30B583B004460D460F48012306
:1039AC00436000220260C360846001A9FFF7E6FE59
:1039BC0008B104200FE0002306E034F8131013467E
:1039CC004FF6FF72914205D15A1CB2EB550FF4D34E
:1039DC00002000E0032003B030BD00BF1C04002019
:1039EC0008B5FEF777F908B1012008BD002008BD25
:1039FC00F8B505460C461646FFF7C4FFD8B9204665
:103A0C003146FFF7C7FFB8B927460CE00120214625
:103A1C002A880023FEF7A0F978B92A8823889A42CD
:103A2C000DD102340235631CF2199342EED3FFF729
:103A3C00D7FF30B9F8BDF8BDF8BD0620F8BD05209C
:103A4C00F8BDF8BD014B5860704700BFF80000206E
:103A5C00014B9860704700BFF800002008B505487E
:103A6C00FFF744FA20B90348FFF790FA002008BD8D
:103A7C00012008BDF800002008B50248FFF79CFAA9
:103A8C0008BD00BFF800002038B504460D460228DA
:103A9C0003D904483821FDF7B1FA034B53F824300D
:103AAC005D6038BD3C5100083051000808B5054B2D
:103ABC0053F82000FFF7F2FB08B1012008BD0020ED
:103ACC0008BD00BF3051000808B503460A4605483A
:103ADC001946FFF75FFC10B14FF0FF3008BD002016
:103AEC0008BD00BF4801002008B582B20448FFF7AA
:103AFC00A1FC10B14FF0FF3008BD002008BD00BF85
:103B0C0088010020014B1860704700BF2C04002076
:103B1C00014B5860704700BF2C040020014B98608B
:103B2C00704700BF2C040020014BD860704700BFC9
:103B3C002C04002010B50446032803D90548232182
:103B4C00FDF75CFA044B53F824000449FEF784F9A2
:103B5C0010BD00BF78510008685100082C040020EB
:103B6C0070B504460E461546032803D9054828218E
:103B7C00FDF744FA044B53F824003146EAB2FEF741
:103B8C00E7FA70BD78510008685100080FB400B511
:103B9C0083B004A951F8040B019100F0B5F803B0FF
:103BAC005DF804EB04B0704738B504460C4B1D6847
:103BBC0002E0012000F052FE0A4B1B7813F0FF0FBD
:103BCC0004D12B19064A12689342F2D82C44044BA8
:103BDC001B689C4201D8012038BD002038BD00BFB5
:103BEC0060080020C801002008B56420FFF7DCFF46
:103BFC0098B90A4B1B686BB1084A591C11600A2111
:103C0C00197007481168091A89B2FFF75DFF002285
:103C1C00044B1A70024A014B1A6008BD3C08002084
:103C2C003C040020C80100200FB430B583B006ACB2
:103C3C0054F8045B6420FFF7B7FF01942846214633
:103C4C0000F062F8064B1B68064A9B1AB3F5617FBD
:103C5C0001DDFFF7C9FF03B0BDE8304004B0704789
:103C6C003C0800203C04002008B42DE9F04183B04E
:103C7C0006468846174609AC54F8045B6420FFF7E7
:103C8C0093FF0A4841463A463346FFF77FFF0194BB
:103C9C002846214600F038F80548FFF777FFFFF774
:103CAC00A3FF03B0BDE8F04101B07047A05100087C
:103CBC00785300080122014B1A707047C80100208C
:103CCC0010B504460A2802D10D20FFF7F9FF074B67
:103CDC001B6823B1591C054A11601C7010BD044BA4
:103CEC001B680BB12046984710BD00BF3C08002054
:103CFC004008002010B5044602E00134FFF7E0FF55
:103D0C0020780028F9D110BD2DE9F04F85B006467A
:103D1C008846741C3078002800F0ED80252803D0EC
:103D2C00FFF7CEFF2646F4E7B31C7078302803D19A
:103D3C00F31CB078012706E02D2803D1F31CB078D2
:103D4C00022700E000271E46002406E004EB840452
:103D5C0064000444303C30780136A0F13003DBB20F
:103D6C00092BF3D96C2801D04C2803D147F0040758
:103D7C0030780136002800F0BE80602803D9A0F10D
:103D8C002003DBB200E00346A3F14202162A3ED820
:103D9C00DFE802F04030373D3D3D3D3D3D3D3D3D92
:103DAC003D433D3D3D0C3D373D3D3A00D8F800A02C
:103DBC0008F10408002500E001351AF80530002B45
:103DCC00FAD103E02020FFF77BFF4D4617F0020FDE
:103DDC0004D105F10109A542F4D34D465046FFF735
:103DEC0089FF03E02020FFF76BFF3D466F1CA542C7
:103DFC00F8D38EE798F8000008F10408FFF760FF8D
:103E0C0087E74FF00A0C0AE04FF0100C07E0FFF7C1
:103E1C0057FF7EE74FF0020C01E04FF0080C17F053
:103E2C00040F04D0D8F8009008F104080AE0442BE1
:103E3C0004D1D8F8009008F1040803E0D8F80090F9
:103E4C0008F10408442B06D1B9F1000F03DAC9F1CB
:103E5C00000947F00807002100E02946B9FBFCFEE9
:103E6C000CFB1E93DBB2F146092B06D9782801D145
:103E7C00272200E007221A44D3B24D1C04AA114495
:103E8C00303301F8103CBEF1000F01D00F2DE4D9F6
:103E9C0017F0080F06D02B4604AA134401352D2227
:103EAC0003F8102C17F0010F02D04FF0300B01E08B
:103EBC004FF0200BA94603E05846FFF701FFD1460F
:103ECC0017F0020F04D109F1010AA145F4D3D14630
:103EDC00013D04AB2B4413F8100CFFF7F1FE002D41
:103EEC00F6D103E02020FFF7EBFEA94609F101050E
:103EFC00A145F7D30DE705B0BDE8F08F38B5054601
:103F0C000C4602204FF41651FFF7BEFD0220FFF7BE
:103F1C00CDFD30BB144B1B681C4408202946FFF711
:103F2C00E3FD04E01148FFF77FFEFFF75DFE0E4B4B
:103F3C001B689C4203D90E4B1B68002BF2D10C4B17
:103F4C00186878B9002302E00022EA540133022BEE
:103F5C00FADD032302E04022EA540133062BFADD9A
:103F6C0038BD38BD012038BD60080020B0510008B4
:103F7C00CC01002010B4802803D10022174B1A600A
:103F8C001EE0164B1B68062B08DC154AD05417E0B4
:103F9C00134CE45C2244D2B2013301E00123002231
:103FAC00062BF5DD504010F07F0F06D0022011E0FB
:103FBC000B4AD25CCA54013300E00023072BF7DD17
:103FCC00064B1B68082B04DC0133044A13600020E9
:103FDC0000E003205DF8044B704700BF440800204C
:103FEC0048080020F8B506460F4B1B68002B11DD66
:103FFC000D4A1368013B136008203146FFF774FD2E
:10400C000020F8BD305D3946FFF7B4FF054628B9EE
:10401C00013401E00F460024072CF3DD0820314663
:10402C00FFF762FD2846F8BDCC010020C378403B69
:10403C003F2B0ADCC378403B13F13F0F02DBC07807
:10404C00403870476FF03F0070474020704700BF0A
:10405C000379403B3F2B0ADC0379403B13F13F0FC4
:10406C0002DB0079403870476FF03F00704740200A
:10407C00704700BF4379403B3F2B0ADC4379403B00
:10408C0013F13F0F02DB4079403870476FF03F006F
:10409C0070474020704700BF8379403B3F2B0ADCC0
:1040AC008379403B13F13F0F02DB80794038704736
:1040BC006FF03F0070474020704700BFF0B583B0F1
:1040CC000446837803F00303032B05D0837813F0A5
:1040DC00010F03D1002502E0002500E0012515B1F8
:1040EC007748FFF7A1FD7748FFF79EFD15B176489D
:1040FC00FFF79AFDA37803F00303032B05D0A378F5
:10410C0013F0020F03D1002502E0002500E0012589
:10411C0015B16B48FFF788FD6C48FFF785FD15B1AD
:10412C006948FFF781FDA37803F00C030C2B05D035
:10413C00A37813F0040F03D1002502E0002500E062
:10414C00012515B15E48FFF76FFD6148FFF76CFD67
:10415C0015B15D48FFF768FDA37803F00C030C2B39
:10416C0005D0A37813F0080F03D1002502E0002539
:10417C0000E0012515B15248FFF756FD5548FFF7F1
:10418C0053FD15B15048FFF74FFD637813F001054F
:10419C0002D04B48FFF748FD4F48FFF745FD15B1DE
:1041AC004948FFF741FDA37803F0200303F0FF0516
:1041BC0013B14348FFF738FD4848FFF735FD15B1FB
:1041CC004148FFF731FDA37803F0400303F0FF05EE
:1041DC0013B13B48FFF728FD4148FFF725FD15B10A
:1041EC003948FFF721FDA37803F0100303F0FF0516
:1041FC0013B13348FFF718FD3A48FFF715FD15B119
:10420C003148FFF711FD637803F0020303F0FF055B
:10421C0013B12B48FFF708FD3348FFF705FD15B127
:10422C002948FFF701FD637803F0040303F0FF0551
:10423C0013B12348FFF7F8FC2C48FFF7F5FC15B138
:10424C002148FFF7F1FC637803F0080303F0FF0546
:10425C0013B11B48FFF7E8FC2548FFF7E5FC15B147
:10426C001948FFF7E1FC637803F0100303F0FF0536
:10427C0013B11348FFF7D8FC1E48FFF7D5FC15B156
:10428C001148FFF7D1FC1C48FFF7CEFC2046FFF786
:10429C00CDFE07462046FFF7DBFE06462046FFF71D
:1042AC00E9FE05462046FFF7F7FE00901348394615
:1042BC0032462B46FFF7B8FC002003B0F0BD00BF20
:1042CC00B4510008C4510008CC510008DC5100085E
:1042DC00E4510008EC510008F4510008FC510008AE
:1042EC00005200080852000810520008185200082A
:1042FC002052000828520008785300083052000859
:10430C0000B583B043788DF80430DB438DF805306D
:10431C00007801A9022200F067F803B05DF804FBF5
:10432C0008B50346024819785A78FFF77DFC08BD9A
:10433C004852000830B585B0054643880F4CA4FBA5
:10434C000324E408B4F57A7F08D302780092019331
:10435C000B480C4920220C4BFFF786FC2A79230AC8
:10436C0043EA82038DF80C308DF80D40287803A9B0
:10437C00022200F039F805B030BD00BFCDCCCCCC5A
:10438C00AC4E0008585200086452000810B50446A0
:10439C000F482178FFF748FC2379032B12D8DFE86C
:1043AC0003F002060A0E0B48FFF73EFC0AE00A482F
:1043BC00FFF73AFC06E00948FFF736FC02E0084834
:1043CC00FFF732FC07486188FFF72EFC10BD00BFD9
:1043DC007C520008885200088C5200089052000849
:1043EC009452000898520008F0B585B006460F4666
:1043FC001446FFF7A3FA054648B13B7800960194A2
:10440C000293044804491A22044BFFF72DFC28465A
:10441C0005B0F0BDAC4E0008CC520008A452000808
:10442C0010B5002409E004EB44035B000B4818446E
:10443C00FFF780FF00B110BD0134032CF3DD002425
:10444C0007E0074800EB4400FFF75AFF00B110BD2E
:10445C000134002CF5DD002010BD00BF0800002049
:10446C000400002010B5002407E004EB44035B00BB
:10447C0008481844FFF78AFF0134032CF5DD0024AB
:10448C0005E0054800EB4400FFF74AFF0134002C1F
:10449C00F7DD10BD080000200400002008B5002046
:1044AC000549FFF72BFA0020FFF73AFA08B1012073
:1044BC0008BD002008BD00BFA08601000020704789
:1044CC0000B595B009230A934FF480330B93002267
:1044DC000C92012210920222119212934FF4E013CB
:1044EC0013930AA8FCF78CFD38B122482249D82234
:1044FC00224BFFF7B9FB012038E00F230593022173
:10450C000691002307934FF480620892099305A843
:10451C00FDF74AF938B117481749E322184BFFF752
:10452C00A3FB012022E0022301934FF400430393E9
:10453C0001A8FDF727FE38B10E480F49EA22114BAE
:10454C00FFF792FB012011E0FDF780FA4FF47A732C
:10455C00B0FBF3F0FDF79AFF0420FDF7ADFF4FF031
:10456C00FF3000210A46FDF73BFF002015B05DF837
:10457C0004FB00BFAC4E0008D852000808530008DA
:10458C00185300082C53000800B585B0284B9A69C5
:10459C0042F004029A619A6902F004020092009AB5
:1045AC009A6942F008029A619A6902F00802019233
:1045BC00019A9A6942F010029A619A6902F010020B
:1045CC000292029A9A6942F020029A619B6903F066
:1045DC0020030393039B4FF40050FFF793FA002042
:1045EC00FFF796FA0020FFF799FA0220FFF7A2FADC
:1045FC002020FFF787FA0120FFF78AFA0220FFF745
:10460C0093FA0020FFF796FA1020FFF77BFA09487F
:10461C00FFF77EFA0020FFF781FA0220FFF78AFAF3
:10462C00002020210246FFF79BFA05B05DF804FB41
:10463C00001002400000111070B5FDF785FE002837
:10464C0048D1FFF73DFF002846D10120FFF72EFA95
:10465C00FFF7CAFAFFF722FF044600283DD1FFF707
:10466C0093FFFCF793FA1E481E49B0221E4BFFF72E
:10467C00FBFA1E481E49FFF741FC044638B11D48A1
:10468C001849B2221C4BFFF7EFFA012425E0144E17
:10469C00144D30462946B522184BFFF7E5FA304643
:1046AC002946B922164BFFF7DFFA0220FFF7CAF9A9
:1046BC00FA20FFF7CDF9FFF7D1F9054638B10D48CF
:1046CC000849BE220F4BFFF7CFFA2C4605E0FCF74A
:1046DC005DFA02E0012400E00124204670BD00BF19
:1046EC00584E000840540008485300085808002051
:1046FC00A0860100AC4E0008645300087C530008EF
:10470C0090530008A053000808B5FCF745FA08BD03
:10471C0008B5FFF785FE08BD00B583B0FFF78CFF29
:10472C0050B100903C483D4935223D4BFFF79CFA77
:10473C006420FFF739FA6AE00A20FFF7BFFE50B198
:10474C000090354835493C22364BFFF78DFA6420F2
:10475C00FFF72AFA5BE00022334B1A6033482F49EB
:10476C004422334BFFF780FA3248FFF75DFAFFF72C
:10477C003BFAFFF781F9FFF7C7FF2B4B1A682E4B5B
:10478C00A3FB02131B09322101FB1323092B0ED8A7
:10479C002A48FFF749FA2A48FFF790FCFFF762FE18
:1047AC00284B19782848FFF73FFAFFF71DFA1E4BE4
:1047BC001A68264BA3FB0213DB0803EB83035B0095
:1047CC00D31A042BF3D1FFF7A3FF38B10090124892
:1047DC00124964221E4BFFF747FA18E0124B1A6875
:1047EC001A4BA3FB0213DB0803EB83035B009A4217
:1047FC00F4D1184B1A6801321A601B68132BB8D904
:10480C00054806496E22144BFFF72EFAFEE70120ED
:10481C0003B05DF804FB00BFAC4E00080053000869
:10482C00BC530008D053000860080020584E000804
:10483C00EC530008F85300081F85EB51FC5300089B
:10484C0058080020D001002004540008CDCCCCCC5A
:10485C0008540008640800202454000810B582B0E5
:10486C000446084B1B68019301E0FFF705F9019B17
:10487C002344044A12689342F7D8FFF7FDF802B0BC
:10488C0010BD00BF6008002008B508480849FFF7B4
:10489C00A9FB30B10748084940F21712074BFFF744
:1048AC00E3F90022064B1A6008BD00BF5008002037
:1048BC0058080020AC4E0008E85200083854000894
:1048CC006408002008B5FFF7F5F908BD002103E0E6
:1048DC000B4B5B58435004310A480B4B42189A421D
:1048EC00F6D30A4A02E0002342F8043B084B9A42F2
:1048FC00F9D3FBF757FC00F00FF8FFF70DFF7047EB
:10490C005054000800000020D4010020D8010020E1
:10491C0068080020FEE700000E4B70B51E460E4CDA
:10492C000025E41AA410A54204D056F82530984767
:10493C000135F8E700F022F8084B094C1E46E41A42
:10494C00A4100025A54204D056F82530984701350F
:10495C00F8E770BD48540008485400084854000853
:10496C004C54000810B5431E0A44914204D011F86F
:10497C00014B03F8014FF8E710BD0000F8B500BF7C
:10498C00F8BC08BC9E467047F8B500BFF8BC08BC24
:04499C009E4670477C
:1049A00002030405060708090A0B0C0D0E0F101070
:1049B00001020000000000000000000001020304EA
:1049C00006070809000000000102030461645F6B30
:1049D00065795461736B000052435F61646A75735B
:1049E000745F5A65726F0000000000001400000040
:1049F000ECFFFFFF6C6566742061646A7573740078
:104A00000000000025000000000000000000000081
:104A100014000000ECFFFFFF726967687420616496
:104A20006A7573740000000025000000000000009B
:104A300032000000C80000000000000073746565CB
:104A400072696E672074696D650000002A31306DEF
:104A5000730000000A000000E703000001000000EE
:104A600072632074696D656F75740000000000004A
:104A700073000000000000000400000006000000B9
:104A800002000000726320636E74722074686572A5
:104A9000657300002F3136000000000004000000A4
:104AA0000600000002000000726320636E74722032
:104AB00074686572657300002F31360000000000D5
:104AC0000400000006000000020000007263206382
:104AD0006E74722074686572657300002F31360041
:104AE00000000000040000000600000002000000BA
:104AF000726320636E74722074686572657300005F
:104B00002F31360000000000040000000600000005
:104B100002000000726320636E7472207468657214
:104B2000657300002F313600000000005B25326401
:104B30005D203C252D3135733E205B253364202DCF
:104B4000202533645D5B2533645D5B2535735D0033
:104B50001B5B25643B2564480000000020205B4E61
:104B60004F5D203C252D3135733E205B4D494E2055
:104B70002D204D41585D5B56616C5D5B2535735D45
:104B80000A0000004E616D6500000000556E6974FA
:104B9000000000002D2D2D2D2D2D2D2D2D2D2D2DF9
:104BA0002D2D2D2D2D2D2D2D2D2D2D2D2D2D2D2D35
:104BB0002D2D2D2D2D2D2D2D2D2D2D2D2D2D2D2D25
:104BC0002D2D2D2D2D0A00003E200000202000005C
:104BD0002B2D2D2D2D2D1B5B313B33336D48454C3B
:104BE000501B5B303B33396D2D2D2D2D2D2D2D2D53
:104BF0002D2D2D2D2D2D2D2B2D2D2D2D2D2D2D2DE7
:104C00002D2D2D2D2D2D2D2D2D2D2D2D2D2D2D2DD4
:104C10002B0A00007C2025732E2E2E252D31387373
:104C20007C2025732E2E2E252D3138737C0A000012
:104C3000E286912000000000435552534F52205508
:104C400050000000E28693200000000043555253BC
:104C50004F5220444F574E004C31000056414C55A6
:104C600045204445434031005231000056414C55E7
:104C70004520494E434031004C32000056414C55CE
:104C800045204445434031300000000052320000CE
:104C900056414C554520494E4340313000000000FC
:104CA000C39720004F4B0000E2978B2000000000CC
:104CB00073772048454C502F524320646174610043
:104CC000E296B320000000004C4F4144204445468A
:104CD00000000000E296A12000000000534156456C
:104CE000203220464C415348000000002B2D2D2D32
:104CF0002D2D2D2D2D2D2D2D2D2D2D2D2D2D2D2DE4
:104D00002D2D2D2D2D2B2D2D2D2D2D2D2D2D2D2DD5
:104D10002D2D2D2D2D2D2D2D2D2D2D2D2D2D2B0AE8
:104D2000000000002D2D2D2D2D2D1B5B313B33332D
:104D30006D52432056414C1B5B303B33396D2D2D5A
:104D40002D2D2D2D2D2D2D2D2D2D2D2D2D2D2D2D93
:104D50002D2D2D2D2D2D2D2D2D2D2D2D2D2D2D2D83
:104D60002D2D2D2D0A0000001B5B324A0000000093
:104D700061646A757374207A65726F0A00000000BE
:104D8000E2978B202E2E2E2061646A7573740AC3FD
:104D900097202E2E2E2063616E63656C0A00000042
:104DA0002825642C2564292C2825642C2564290AAF
:104DB000000000002B2D2D2D2D2D2D2D2D2D2D2DD9
:104DC0002D2D2D2D2B2020202B2D2D2D2D2D2D2D3E
:104DD0002D2D2D2D2D2D2D2D2B20200A00000000F6
:104DE0007C202020202020207C202020202020200B
:104DF0007C2020207C202020202020207C2020209F
:104E0000202020207C20200A000000007C2D2D2D59
:104E10002D2D2D2D2B2D2D2D2D2D2D2D7C2020209C
:104E20007C2D2D2D2D2D2D2D2B2D2D2D2D2D2D2D65
:104E30007C20200A000000001B5B34316D20201B09
:104E40005B34396D000000001B5B34326D20201B89
:104E50005B34396D000000006D73670061646A7532
:104E6000737465640000000063616E63656C656463
:104E7000000000003E0000002A0000006C6F61642A
:104E80002064656661756C742076616C75650000E0
:104E9000736176652073756363657373000000004A
:104EA000706C7A2072657365740000006572720020
:104EB00073617665206661696C757265000000003B
:104EC00052435F41444A555354000000447269768E
:104ED0006572732F53544D3332463178785F4841B1
:104EE0004C5F4472697665722F5372632F73746DD1
:104EF0003332663178785F68616C5F7263632E630A
:104F000000000000447269766572732F53544D336C
:104F100032463178785F48414C5F447269766572F9
:104F20002F5372632F73746D3332663178785F68F4
:104F3000616C5F666C6173682E6300004472697611
:104F40006572732F53544D3332463178785F484140
:104F50004C5F4472697665722F5372632F73746D60
:104F60003332663178785F68616C5F6770696F2E85
:104F700063000000447269766572732F53544D3399
:104F800032463178785F48414C5F44726976657289
:104F90002F5372632F73746D3332663178785F6884
:104FA000616C5F7263635F65782E6300447269763B
:104FB0006572732F53544D3332463178785F4841D0
:104FC0004C5F4472697665722F5372632F73746DF0
:104FD0003332663178785F68616C5F636F727465D5
:104FE000782E6300447269766572732F53544D3383
:104FF00032463178785F48414C5F44726976657219
:105000002F5372632F73746D3332663178785F6813
:10501000616C5F6932632E63000000004472697640
:105020006572732F53544D3332463178785F48415F
:105030004C5F4472697665722F5372632F73746D7F
:105040003332663178785F68616C5F646D612E63BE
:1050500000000000447269766572732F53544D331B
:1050600032463178785F48414C5F447269766572A8
:105070002F5372632F73746D3332663178785F68A3
:10508000616C5F697764672E630000004472697623
:105090006572732F53544D3332463178785F4841EF
:1050A0004C5F4472697665722F5372632F73746D0F
:1050B0003332663178785F68616C5F756172742E27
:1050C00063000000447269766572732F53544D3348
:1050D00032463178785F48414C5F44726976657238
:1050E0002F5372632F73746D3332663178785F6833
:1050F000616C5F666C6173685F65782E63000000A9
:105100004400002080000020447269766572732F8D
:105110006D6964646C654C61796572732F493243C3
:105120002F5372632F4D575F4932432E63000000A7
:10513000080100204801002088010020447269769F
:105140006572732F6D6964646C654C617965727307
:105150002F554152542F5372632F4D575F55534172
:1051600052542E630000000000080140000C014072
:105170000010014000140140447269766572732F7B
:105180006D6964646C654C61796572732F47504931
:105190004F2F5372632F4D575F4750494F2E630077
:1051A000252D31307320252D336420252D387300B3
:1051B000243000001B5B313B33336D1B5B34306D9F
:1051C00000000000E2869120200000001B5B303BC5
:1051D00033396D1B5B34396D00000000E28693208B
:1051E00020000000E286922020000000E28690204D
:1051F00020000000E296A12020000000582020009E
:10520000E2978B2020000000E296B32020000000EF
:105210004C312020000000004C3220200000000013
:1052200052312020000000005232202000000000F7
:10523000282533642C253364292C282533642C2518
:105240003364290A000000004142282530327829C1
:105250003A5B253038625D0044445F73656E6432AA
:105260004D4400005B25785D64757479206F766528
:105270007220666C6F772825642900004D4428252C
:10528000303278293A5B0000467200004677000011
:1052900042770000427200005D2C5B2534645D0A99
:1052A000000000007472616E73206661696C642096
:1052B000617420282578292073697A652025642C5B
:1052C000646174615B305D3D2564000044445F4966
:1052D000324353656E64000053595F636C6F636BB8
:1052E000496E69740000000048414C5F55415254BA
:1052F0005F527843706C7443616C6C6261636B00E5
:105300006D61696E000000006F7363436F6E6669C4
:10531000674661696C640000636C6F636B436F6E1A
:105320006669674661696C640000000048414C5F33
:1053300052434345785F506572697068434C4B43F4
:105340006F6E6669670000007761697420666F722E
:1053500020524320636F6E6E656374696F6E2E2EEC
:105360002E000000524320696E697469616C697A8D
:1053700065206661696C64210A0000005243206365
:105380006F6E6E6563746564207375636573730017
:105390004957444720696E697469616C697A650090
:1053A0004957444720696E697469616C697A652060
:1053B0006661696C6564210A00000000696E6974A9
:1053C00069616C697A65204661696C6425640000D6
:1053D000493243436F6E6E656374696F6E546573D3
:1053E00074204661696C6425640000007374617206
:1053F0007421210A000000001B5B324A1B5B313B19
:1054000031480000242564004465766963652044C2
:105410007269766572205461736B73204661696CA2
:1054200064256400524320646973636F6E6E656324
:1054300074656421000000007263206572720000D0
:0854400053595F696E697400A5
:0454480079010008DE
:04544C005101000802
:1054500000A24A042000000010000000000011001B
:105460000000000012000000000013000000000017
:10547000600200203C02002084020020A8020020DC
:10548000CC020020F002002014030020380300208A
:105490005C03002000540040A086010000000000D2
:1054A00000000000004000000000000000000000BC
:1054B00000000000000000000000000000000000EC
:1054C00000000000000000000000000000000000DC
:1054D00000580040A086010000000000000000000D
:1054E000004000000000000000000000000000007C
:1054F00000000000000000000000000000000000AC
:10550000000000000000000000000000002C01402E
:10551000000000000000000000000000000000008B
:10552000000000000000000000000000000000007B
:10553000000000000000000000000000000000006B
:1055400000000000000000000030004000000000EB
:10555000FF0F0000000000000038014000C2010001
:105560000000000000000000000000000C0000002F
:10557000000000000000000000000000000000002B
:10558000000000000000000000000000000000001B
:1055900000000000000000000044004000C20100C4
:1055A0000000000000000000000000000C000000EF
:1055B00000000000000000000000000000000000EB
:1055C00000000000000000000000000000000000DB
:1055D000000000000000000000480040802500009E
:1055E0000000000000000000000000000C000000AF
:1055F00000000000000000000000000000000000AB
:10560000000000000000000000000000000000009A
:105610000000000000000000010000000900000080
:045620000100000085
:04000005080048D9CE
:00000001FF
